:020000040000FA
:020000001928BD
:040002000034003492
:0800080045288207C034F934D9
:10001000A434B034993492348234F8348034903437
:1000200088348334C634A13486348E348207FE3457
:10003000FD34831603170130880089010313013052
:100040008500DF30860000308700FC3088004030BB
:100050008C0000308D0080309F0060308B000530B8
:10006000810083123D2041309F000030B0000030FD
:10007000B100643081008B173C28A20100301620AB
:1000800088000030052087000800A000030EA100B2
:100090000B1951280C1B6428210E8300A00E200E82
:1000A00009000B11643081009F142208303E840047
:1000B000000805208700220816208800A20A2208CE
:1000C000023C0319A2014C280C13860983161E0852
:0E00D0008312F039B000B00E1E08B1004C28AB
:02400E00D420BC
:02401000FF3E71
:00000001FF
